:1000000010C017C016C015C014C013C012C011C054
:1000100010C00FC00EC00DC00CC00BC00AC009C07C
:1000200008C011241FBECFE5D2E0DEBFCDBF13D084
:10003000BBC0E6CF379A369A349BFECF85B1379A4C
:100040002FE73CE094E6215030409040E1F700C0BB
:10005000000090E00895CF93DF9300D000D0CDB79B
:10006000DEB78FE78ABB1BBA1ABA81E064D082E0A0
:1000700062D06894662461F80F2EF3E07F2EF02D95
:100080006894882482F80F2EF5E09F2EF02DA12C85
:100090007E0125E0E20EF11C81E036D0CBDFB82EE8
:1000A00081E089836A827B828C82C92CDA2C5BD0C6
:1000B0008AEA5CD08E010F5F1F4FF80181918F019A
:1000C00055D00E151F05C9F78E010F5F1F4FF801A0
:1000D00081918F014BD00E151F05C9F781E046D0E5
:1000E0008B2D44D080E042D0F1E0CF1AD108F9F650
:1000F00081E015D02FE98FE09DE7215080409040AE
:10010000E1F700C00000C8CF9BB321E030E002C09F
:10011000220F331F8A95E2F7292B2BBB08959BB33F
:1001200021E030E002C0220F331F8A95E2F72095CC
:1001300029232BBB08959AB321E030E002C0220F9F
:10014000331F8A95E2F7292B2ABB0895882319F0DB
:1001500082E0DADF02C082E0E2DF85ED90E0019725
:10016000F1F70000089582E0CFDF08950F931F9309
:10017000CF93DF93082F80E0E9DFC0E0D0E010E00C
:10018000C8010C2E02C0969587950A94E2F78170FB
:10019000DDDF2196C830D10599F781E0D7DFDF9107
:0C01A000CF911F910F910895F894FFCFAC
:00000001FF
