:1000000010C017C016C015C014C013C012C011C054
:1000100010C00FC00EC00DC00CC00BC00AC009C07C
:1000200008C011241FBECFE5D2E0DEBFCDBF13D084
:10003000BAC0E6CF379A369A349BFECF85B1379A4D
:100040002FE73CE094E6215030409040E1F700C0BB
:10005000000090E00895CF93DF9300D000D0CDB79B
:10006000DEB78FE78ABB1BBA1ABA81E061D082E0A3
:100070005FD0CE0105966C0192E0692E23E0722ECE
:1000800034E0832E81E03FD0D5DF982E81E0898354
:100090006A827B828C8285E0A82EB12C65D08AEAA8
:1000A00065D08E010E5F1F4F780181E05FD0EC14A8
:1000B000FD0439F0F70181917F0158D0EC14FD0463
:1000C000C9F781E053D0C016D10639F0F80181910B
:1000D0008F014CD0C016D106C9F781E047D0892DD9
:1000E00045D080E043D0F1E0AF1AB108B9F681E025
:1000F00014D02FE98FE09DE7215080409040E1F738
:1001000000C00000BFCF9BB321E030E001C0220F50
:100110008A95EAF7292B2BBB08959BB321E030E0A9
:1001200001C0220F8A95EAF7209529232BBB089559
:100130009AB321E030E001C0220F8A95EAF7292B1B
:100140002ABB0895811108C082E0E7DF85ED90E0C9
:100150000197F1F70000089582E0D5DF85ED90E08A
:100160000197F1F70000089582E0CDCF0F931F9320
:10017000CF93DF93082F80E0E5DF10E0C0E0D0E010
:10018000C8010C2E02C0969587950A94E2F78170FB
:10019000D9DF2196C830D10599F781E0DF91CF9161
:0A01A0001F910F91CFCFF894FFCF0D
:00000001FF
